{
  "_format": "hh-sol-artifact-1",
  "contractName": "CertificationC1",
  "sourceName": "contracts/certificationC1.sol",
  "abi": [
    {
      "inputs": [],
      "stateMutability": "nonpayable",
      "type": "constructor"
    },
    {
      "inputs": [
        {
          "internalType": "uint16",
          "name": "a",
          "type": "uint16"
        },
        {
          "internalType": "uint16",
          "name": "b",
          "type": "uint16"
        }
      ],
      "name": "function1",
      "outputs": [
        {
          "internalType": "uint16",
          "name": "result",
          "type": "uint16"
        }
      ],
      "stateMutability": "nonpayable",
      "type": "function"
    },
    {
      "inputs": [
        {
          "internalType": "uint16",
          "name": "a",
          "type": "uint16"
        }
      ],
      "name": "function2",
      "outputs": [
        {
          "internalType": "uint16",
          "name": "result",
          "type": "uint16"
        }
      ],
      "stateMutability": "nonpayable",
      "type": "function"
    }
  ],
  "bytecode": "0x608060405234801561001057600080fd5b506101ca806100206000396000f3fe608060405234801561001057600080fd5b50600436106100365760003560e01c806382c56fc71461003b578063b572c25414610065575b600080fd5b61004e6100493660046100d9565b610078565b60405161ffff909116815260200160405180910390f35b61004e61007336600461010c565b61009d565b60006100848284610144565b3360009081526020819052604090204390559392505050565b60006100aa82600261016e565b33600090815260016020526040902043905592915050565b803561ffff811681146100d457600080fd5b919050565b600080604083850312156100ec57600080fd5b6100f5836100c2565b9150610103602084016100c2565b90509250929050565b60006020828403121561011e57600080fd5b610127826100c2565b9392505050565b634e487b7160e01b600052601160045260246000fd5b600061ffff808316818516818304811182151516156101655761016561012e565b02949350505050565b600061ffff80831681851680830382111561018b5761018b61012e565b0194935050505056fea2646970667358221220a9fe55788805f5b4c17059989a195462fdaa02b823797d6588ddf2fc2a75a68a64736f6c634300080f0033",
  "linkReferences": {},
  "deployedLinkReferences": {}
}